:1000000045C0000060C000005EC000005CC0000091
:100010005AC0000058C0000056C0000054C0000084
:1000200052C0000050C000004EC000004CC0000094
:100030004AC00000C6C1000046C0000044C0000025
:1000400042C0000040C000003EC000003CC00000B4
:100050003AC0000038C0000036C0000034C00000C4
:1000600032C0000030C000002EC000002CC00000D4
:100070002AC0000028C0000026C0000024C00000E4
:1000800022C0000020C000001EC0000011241FBEBE
:10009000CFEFD0E4DEBFCDBF11E0A0E0B1E0E8E2F9
:1000A000F5E000E00BBF02C007900D92A630B1074B
:1000B000D9F721E0A6E0B1E001C01D92A533B20757
:1000C000E1F7CDD12FC29CCF9C0183B18095817087
:1000D00022303105A9F03CF421153105B1F0213071
:1000E000310501F507C02330310539F024303105E1
:1000F000C9F409C08823C9F008C0882381F00AC068
:100100008823B1F007C0882351F01092000121E04C
:1001100030E005C08FEF8093000122E030E0822FB5
:10012000932F089520E030E0FACF23E030E0F7CFBE
:1001300024E030E0F4CFEAE7F0E08081806E808355
:100140000895883060F0ECE7F0E08081808309C09A
:1001500000008150E9F78EE180930C0108958093AF
:100160007C008EE1F5CF0F931F93CF93DF93EC01CB
:1001700080E0E7DF08E710E0F801808191810296D6
:10018000909332018093310181E0DBDFF8018081BF
:10019000918102969093340180933301209721F04E
:1001A000C130D10541F503C0C1E0D0E026C02091A7
:1001B0003101309132012530310520F481E0809306
:1001C00006011BC0293E334020F082E080930601E7
:1001D00014C08530910520F484E0809306010DC0A1
:1001E000893E934020F088E08093060106C08AE0B3
:1001F0008093060102C0C0E0D0E08C2F9D2FDF91DC
:10020000CF911F910F910895813081F0E1ECF0E0E2
:10021000808188618083E2ECF0E080818660808369
:1002200087E68093C4001092C5000895E9ECF0E0E1
:10023000808188618083EAECF0E080818660808341
:1002400087E68093CC001092CD000895813021F094
:100250008091C000807208958091C80080720895D6
:10026000613041F0E0ECF0E0908195FFFDCF8093AC
:10027000C6000895E8ECF0E0908195FFFDCF8093F3
:10028000CE000895009739F0DCF00397CCF480910C
:10029000000181110AC080E0D9DF8823A1F060E06D
:1002A0008FEFDEDF21E030E013C080E0CFDF882376
:1002B00069F060E080910601D3DF22E030E008C001
:1002C00020E030E005C021E030E002C022E030E074
:1002D000822F932F08956093010170930201809300
:1002E00003019093040160930701709308018093C8
:1002F000090190930A0108958BE0809381008DE7B6
:1003000090E0909389008093880082E080936F0052
:100310001092850010928400809101019091020159
:10032000A0910301B091040180930701909308010B
:10033000A0930901B0930A018FB780688FBF089519
:10034000EF92FF920F931F93CF93DF9381E08093FF
:100350000B01CDE0D1E00F2EF1E3EF2EF1E0FF2E07
:10036000F02D8E014E815F81688579858A819B8120
:10037000AC81BD81481759076A077B0758F0EA85A9
:10038000FB85888199810995998388831E821F82C4
:1003900018861986F80186819781A085B185C29655
:1003A000A11DB11D86839783A087B1872C96CE159A
:1003B000DF05B9F6DF91CF911F910F91FF90EF907C
:1003C00008951F920F920FB60F9211240BB60F9241
:1003D0002F933F934F935F936F937F938F939F934D
:1003E000AF93BF93EF93FF93809107019091080122
:1003F000A0910901B0910A010197A109B109809367
:10040000070190930801A0930901B0930A01892B79
:100410008A2B8B2B89F494DF80910101909102014A
:10042000A0910301B091040180930701909308010A
:10043000A0930901B0930A01FF91EF91BF91AF9191
:100440009F918F917F916F915F914F913F912F91EC
:100450000F900BBE0F900FBE0F901F90189514B801
:100460008FEF85B910920E0110920D0184E690E095
:10047000A0E0B0E080930F0190931001A0931101D0
:10048000B09312018093130190931401A09315016E
:10049000B093160124E630E0309318012093170141
:1004A00010921A011092190180931B0190931C0164
:1004B000A0931D01B0931E0180931F019093200112
:1004C000A0932101B093220183EB90E0909324014B
:1004D00080932301109226011092250182E390E07F
:1004E000A0E0B0E08093270190932801A093290118
:1004F000B0932A0180932B0190932C01A0932D019E
:10050000B0932E0182E491E09093300180932F010B
:1005100012DE80E079DE62E370E080E090E0DBDE16
:08052000EBDEFFCFF894FFCFE2
:06052800FF0100000000CD
:00000001FF
