:100000000C942A000C9447000C9447000C94470071
:100010000C9447000C9447000C9447000C94470044
:100020000C9447000C9447000C949B000C944700E0
:100030000C9447000C9447000C9447000C94470024
:100040000C9447000C9447000C9447000C94470014
:100050000C94470011241FBECFE5D8E0DEBFCDBF12
:1000600010E0A0E6B0E0E0EFF9E002C005900D92EC
:10007000AA38B107D9F720E0AAE8B0E001C01D9284
:10008000A53CB207E1F70E94D2040C94F6040C944C
:100090000000442351F041E050E09A0102C0220FD9
:1000A000331F6A95E2F7822B089521E030E0A90121
:1000B00002C0440F551F6A95E2F7BA016095862386
:1000C000089521E030E0A90102C0440F551F6A9550
:1000D000E2F7842308956093640070936500809331
:1000E00066009093670060938E0070938F008093FA
:1000F00090009093910008958BE083BF8DE78CBFB3
:1001000082E089BF12BE8091640090916500A09149
:100110006600B091670080938E0090938F00A0934B
:100120009000B09391008FB780688FBF089581E0F1
:100130008093920008951F920F920FB60F92112490
:100140002F933F934F935F936F937F938F939F93DF
:10015000AF93BF93EF93FF9380918E0090918F00A8
:10016000A0919000B09191000197A109B1098093ED
:100170008E0090938F00A0939000B0939100892BF4
:100180008A2B8B2B91F40E949700809164009091B0
:100190006500A0916600B091670080938E009093F7
:1001A0008F00A0939000B0939100FF91EF91BF91C9
:1001B000AF919F918F917F916F915F914F913F91FF
:1001C0002F910F900FBE0F901F9018958FEE85BB4B
:1001D000000083B360E00E946100882309F46DC0D1
:1001E00083B361E00E946100882309F468C083B38F
:1001F00062E00E946100882309F463C083B363E076
:100200000E946100882309F45EC08FED85BB000069
:1002100083B360E00E946100882309F456C083B371
:1002200061E00E946100882309F451C083B362E059
:100230000E946100882309F44CC083B363E00E94EC
:100240006100882309F447C08FEB85BB000083B3AE
:1002500060E00E946100882309F43FC083B361E03D
:100260000E9461008823D9F183B362E00E9461009B
:100270008823B9F183B363E00E946100882399F178
:100280008FE785BB000083B360E00E946100882394
:1002900061F183B361E00E946100882341F183B37F
:1002A00062E00E946100882321F183B363E00E9431
:1002B0006100811120C084E4089581E3089584E3FE
:1002C000089587E308958AE2089582E3089585E317
:1002D000089588E3089580E3089583E3089586E30D
:1002E000089589E3089583E2089581E4089582E4FE
:1002F000089583E4089580E0089588EF8ABB1BBACF
:1003000080EF84BB8FE085BB0895809195008111BB
:1003100033C080918D00823321F483E48093940074
:100320000895833321F486E4809394000895843300
:1003300021F489E4809394000895853321F48CE4BA
:10034000809394000895863321F48FE48093940081
:100350000895873321F483E58093940008958833CA
:1003600021F486E5809394000895893309F06FC0E5
:1003700089E580939400089580919700811132C09F
:1003800080918D00823321F481E48093940008955C
:10039000833321F484E4809394000895843321F41A
:1003A00087E4809394000895853321F48AE4809350
:1003B00094000895863321F48DE480939400089589
:1003C000873321F480E5809394000895883321F4E5
:1003D00084E58093940008958933C9F587E5809377
:1003E0009400089580919600811131C080918D0014
:1003F000823321F482E4809394000895833321F4BE
:1004000085E4809394000895843321F488E48093F4
:1004100094000895853321F48BE48093940008952B
:10042000863321F48EE4809394000895873321F479
:1004300082E5809394000895883321F485E58093C4
:1004400094000895893319F488E580939400089501
:1004500080919300882311F088E08BBB089589B3C5
:1004600081708093970089B382708093960089B3DE
:1004700084708093950080918D0080938C000E9401
:10048000E60080938D000E948501809394000E9475
:1004900028028FEF9FEF08951F93CF93DF93182FBC
:1004A000C0916000D091610040E063E088810E94CB
:1004B00049008883E0916200F09163001083C0914D
:1004C0006000D091610041E064E088810E944900B1
:1004D0008883DF91CF911F910895CF93DF93C091CF
:1004E0006000D091610040E064E088810E94490092
:1004F0008883DF91CF9108951F93CF93DF93182FB7
:10050000C0916000D091610041E063E088810E9469
:1005100049008883E0916200F09163001083C091EC
:100520006000D091610041E064E088810E94490050
:100530008883DF91CF911F910895CF93DF93C0916E
:100540006000D091610040E064E088810E94490031
:100550008883DF91CF910895883020F480580E94DD
:100560004C02089588540E944C020895CF938091C4
:10057000B300853009F442C078F4823069F130F478
:100580008823D9F0813009F073C01DC0833051F148
:10059000843009F06DC02CC0883009F448C030F4B4
:1005A000863091F1873009F063C039C0893009F491
:1005B00044C08A3009F05CC053C081E08093B3002E
:1005C0001092980058C0809198008A3008F470C04A
:1005D00082E08093B30072C083E08093B3000E94F6
:1005E0006D0249C084E08093B3000E946D0243C055
:1005F00085E08093B3000E946D023DC086E0809349
:10060000B3000E946D0237C080918A00882309F4EC
:1006100065C010928B0087E08093B30063C088E0D0
:100620008093B3000E946D021092980024C089E06C
:100630008093B3000E946D021EC0C0919800C0312B
:1006400048F488E08093B3000E949D02CF5FC0937E
:10065000980011C08AE08093B3000E949D020BC0F5
:1006600080918A0081114FC086E08093B30036C02C
:100670001092B3001AC08091B300843039F140F475
:100680008130B1F090F08230C9F08330E1F51AC0CA
:10069000873041F128F48530E9F08630A1F51EC09D
:1006A000883021F1893079F526C010928B002BC05B
:1006B000809198008F5F8093980025C088E30E9406
:1006C0004C0221C086E00E944C021DC08FE00E94B7
:1006D0004C0219C081E00E944C0215C081E0809359
:1006E0008B0011C081E00E944C020DC080919800E7
:1006F0000E94AC0208C0E0919800F0E0EC54FF4F7B
:1007000080810E947C02CF9108958091B200823056
:10071000D1F030F4882351F0813009F041C00AC093
:10072000843071F148F18530D9F530C081E0809393
:10073000B200089580918B00882309F453C082E0B1
:100740008093B200089590918D0080918C0098174D
:1007500009F448C083E08093B20040919400409334
:10076000990040939A0030919300E8E6F0E0A4EB02
:10077000B0E088E790E022C084E08093B200089562
:1007800010928A0085E08093B200089590918D00C8
:1007900080918C00981731F181E08093B200089528
:1007A0001092B20010928A0081E1E8E7F0E0A4EB39
:1007B000B0E001900D928A95E1F7089521914213DE
:1007C00002C04C9301C03F5F1196E817F907B1F7DB
:1007D0003093930080E180939B001092C40081E0ED
:1007E00080938A0008950E94B6020E94850381E0EA
:1007F00090E008958FEF87BB81BB98EF9ABB809301
:10080000B3008093B20008950F931F93CF93DF93AB
:10081000B62FA72FF82FE92F022F132FD42FC52F74
:1008200004C0052F142FD32FC22F6B2F7A2F8F2F99
:100830009E2F202F312F4D2F5C2F0E94D404B02FDC
:10084000A12FFD2FEC2F562F472F382F292F672B45
:10085000682B692B31F7602F712F8D2F9C2FDF9123
:10086000CF911F910F910895CF93DF9300D000D0C7
:10087000CDB7DEB70E947D010E94FA032AE030E086
:1008800040E050E06AE070E080E090E00E94040404
:100890006B017C016AE070E080E090E0A7019601C6
:1008A0000E94D404ECE9F0E0FA83E983A7EAB0E01F
:1008B000BC83AB836FEF6083EDE9F0E0208331838D
:1008C00042835383E1EAF0E0208331834283538300
:1008D00083EF93E09093A6008093A5006C93E8EAE1
:1008E000F0E02083318342835383ECEAF0E02083FD
:1008F0003183428353838FE292E09093B1008093DF
:10090000B000C701B6010E946B000E947C0000E0AD
:1009100010E0C12CD12C3BC0F801EE0FFF1F81E08D
:1009200090E08C0F9D1FE80FF91FE080F180D70148
:1009300015964D915D916D917C91189711968D91C1
:100940009D910D90BC91A02D481759076A077B0710
:1009500081F4F70180810184F285E02D992787FDDC
:1009600090950995D7018C93F7011582168217820D
:100970001086F70185819681A781B0850196A11D1A
:10098000B11D85839683A783B0870F5F1F4F023009
:10099000110510F2809192008823E1F310929200E9
:1009A0008601F5CF0E943404A1E21A2EAA1BBB1BBC
:1009B000FD010DC0AA1FBB1FEE1FFF1FA217B3072B
:1009C000E407F50720F0A21BB30BE40BF50B661F41
:1009D000771F881F991F1A9469F760957095809505
:1009E00090959B01AC01BD01CF010895F894FFCF14
:1009F00038003200010000004449504C4F4D415333
:100A000000000000000000005F5F5F5F5F5F5F5FEE
:0A0A10005F5F5F5F5F5F5F5F0000E4
:00000001FF
