S00B00006361722E73726563E3
S113000045C0000060C000005EC000005CC000008D
S11300105AC0000058C0000056C0000054C0000080
S113002052C0000050C000004EC000004CC0000090
S11300304AC0000082C0000046C0000044C0000066
S113004042C0000040C000003EC000003CC00000B0
S11300503AC0000038C0000036C0000034C00000C0
S113006032C0000030C000002EC000002CC00000D0
S11300702AC0000028C0000026C0000024C00000E0
S113008022C0000020C000001EC0000011241FBEBA
S1130090CFEFD0E4DEBFCDBF11E0A0E0B1E0E0EFF0
S11300A0F4E000E00BBF02C007900D92A430B1074A
S11300B0D9F721E0A4E0B1E001C01D92A131B2075B
S11300C0E1F7D0D113C29CCF60930001709301017A
S11300D0809302019093030160930B0170930C01D0
S11300E080930D0190930E0108958BE0809381001D
S11300F08DE790E0909389008093880082E080935C
S11301006F001092850010928400809100019091FC
S11301100101A0910201B091030180930B0190931E
S11301200C01A0930D01B0930E018FB780688FBFAF
S1130130089581E080930F0108951F920F920FB6E6
S11301400F9211240BB60F922F933F934F935F930B
S11301506F937F938F939F93AF93BF93EF93FF938B
S113016080910B0190910C01A0910D01B0910E01B1
S11301700197A109B10980930B0190930C01A093FD
S11301800D01B0930E01892B8A2B8B2B89F4D1DFBF
S11301908091000190910101A0910201B0910301AD
S11301A080930B0190930C01A0930D01B0930E0169
S11301B0FF91EF91BF91AF919F918F917F916F913B
S11301C05F914F913F912F910F900BBE0F900FBEF7
S11301D00F901F901895813081F0E1ECF0E0808160
S11301E088618083E2ECF0E080818660808387E62A
S11301F08093C4001092C5000895E9ECF0E080817A
S113020088618083EAECF0E080818660808387E601
S11302108093CC001092CD000895813021F080911C
S1130220C000807808958091C80080780895813056
S113023041F0E0ECF0E080818823ECF78091C60087
S11302400895E8ECF0E080818823ECF78091CE00FB
S1130250089515B885E38A95F1F700008FEF85B905
S11302608FE99FE00197F1F700C0000020E137E239
S113027080E090E04E99019621503109D9F76AE364
S113028070E00DD1862F972F0895E3DF90930A0134
S11302908093090180E0C1DF882329F080E0C7DF73
S11302A08093040188B980911001833009F43FC020
S11302B020F4813089F0E0F40BC0853009F466C085
S11302C008F44DC0863021F1873009F072C02BC08C
S11302D081E0809310019EC0809104018F3F21F43E
S11302E083E0809310017BC082E08093100194C06E
S11302F0809104018F3F21F483E0809310016FC04B
S1130300109206011092050186E0809310019EC0B0
S113031080910501909106014E970CF497C087E0F7
S1130320809310019DC082E08093100175C080917C
S113033004018F3F21F082E0809310016DC0809111
S1130340090190910A014F970CF049C084E0809311
S11303501001109208011092070112B82DC080916B
S113036004018F3F21F082E08093100155C08091F9
S113037007019091080184369105A4F185E08093EA
S11303801001109208011092070116C08091040117
S11303908F3F21F082E0809310013EC080910701DD
S11303A090910801843691054CF183E0809310010B
S11303B016C010921001089580911001843091F0BC
S11303C038F4823049F158F4813009F04AC022C02F
S11303D08630E1F198F0873009F043C041C084E0F1
S11303E082B9089580910701909108010196909334
S11303F008018093070182E482B90895809107017E
S1130400909108010196909308018093070184E27A
S113041082B9089512B80895809104018A3011F4C4
S113042012B80895813019F484E482B908958230B1
S113043019F482E482B90895843019F484E282B90B
S11304400895883071F484E482B908958091050197
S113045090910601019690930601809305010895F9
S113046012B808958FEF81B912B884B915B887B955
S113047018B88FEB8AB980E48BB96AE070E080E049
S113048090E022DE32DE80E0A6DE10921001FDDE76
S113049080910F018823E1F310920F01F8CF97FBAD
S11304A0072E16F4009406D077FD08D00BD007FC75
S11304B005D03EF4909581959F4F08957095619570
S11304C07F4F0895AA1BBB1B51E107C0AA1FBB1F86
S11304D0A617B70710F0A61BB70B881F991F5A95CC
S11304E0A9F780959095BC01CD010895F894FFCFAC
S10704F00100000003
S9030000FC
