:1000000045C0000060C000005EC000005CC0000091
:100010005AC0000058C0000056C0000054C0000084
:1000200052C0000050C000004EC000004CC0000094
:100030004AC0000011C1000046C0000044C00000DA
:1000400042C0000040C000003EC000003CC00000B4
:100050003AC0000038C0000036C0000034C00000C4
:1000600032C0000030C000002EC000002CC00000D4
:100070002AC0000028C0000026C0000024C00000E4
:1000800022C0000020C000001EC0000011241FBEBE
:10009000CFEFD0E4DEBFCDBF11E0A0E0B1E0E6EEEF
:1000A000F3E000E00BBF02C007900D92A631B1074C
:1000B000D9F721E0A6E1B1E001C01D92AB31B20752
:1000C000E1F706D18EC19CCF8FEE8BB90000489B23
:1000D00029C0499B29C04A9B29C04B9B29C08FED51
:1000E0008BB90000489B26C0499B26C04A9B26C06E
:1000F0004B9B26C08FEB8BB90000489B23C0499BCC
:1001000023C04A9B23C04B9B23C08FE78BB90000C1
:10011000489B20C0499B20C04A9B20C04B9920C0CF
:1001200084E4089581E3089584E3089587E30895BE
:100130008AE2089582E3089585E3089588E30895A7
:1001400080E3089583E3089586E3089589E308959D
:1001500083E2089581E4089582E4089583E4089594
:1001600080E00895181619069CF440E050E077E00E
:1001700063E00BC000002150310921153105D1F792
:100180004F5F5F4F4817590719F0272F362FF2CFCF
:100190000895289888B9299A0000299882E090E06B
:1001A000E1CF089584E690E0DDDF88E3F2DF86E0CA
:1001B000F0DF8FE0EEDF81E0ECDF8AE090E0D2CF8D
:1001C0000895289A88B9299A0000299881E090E03A
:1001D000C9CF0895813118F48158DBCF0895815536
:1001E000D8CF08951F93CF93DF93FB01908199237C
:1001F00059F0EB0111E0180FEDDF8991E2DF888102
:10020000882311F0812FF6CFDF91CF911F910895B0
:100210008BE0809381008DE790E09093890080933C
:10022000880082E080936F00109285001092840015
:100230008091000190910101A0910201B091030110
:100240008093160190931701A0931801B0931901A0
:100250008FB780688FBF08951F920F920FB60F92CD
:1002600011248F939F93AF93BF9380911601909128
:100270001701A0911801B09119010197A109B109C5
:100280008093160190931701A0931801B093190160
:10029000892B8A2B8B2B99F481E080931A01809112
:1002A000000190910101A0910201B091030180939E
:1002B000160190931701A0931801B0931901BF91F3
:1002C000AF919F918F910F900FBE0F901F90189537
:1002D000CF93DF93CDB7DEB766970FB6F894DEBF46
:1002E0000FBECDBF8FEF87B918B890EF9AB99FE0D6
:1002F0009BB984B915B881B912B884E690E0A0E042
:10030000B0E08093000190930101A0930201B093AB
:1003100003018093160190931701A0931801B093E5
:10032000190176DF3FDF87E0E4E0F1E0DE011196BE
:1003300001900D928A95E1F786E0EBE0F1E0DE01B5
:10034000189601900D928A95E1F785E0E1E1F1E0E0
:10035000DE011E9601900D928A95E1F780E290E011
:100360009C8B8B8B6894FF24F5F807E1ADDE8D8BB9
:10037000FE8ABE016F5F7F4F81E034DFBE016B5E9E
:100380007F4F87E02FDFBE01685F7F4F89E02ADF64
:10039000BE016B5E7F4F8EE025DFBE01625F7F4F47
:1003A00081E120DFBE016B5E7F4F85E11BDFBE0177
:1003B0006D5E7F4F8FE016DFBE016D5E7F4F80E187
:1003C00011DF102FBE016D5E7F4F812F0BDF1F5F8E
:1003D0001132C1F780911A018823E1F310921A01BA
:0603E000C5CFF894FFCF29
:1003E600010000005074726E3A20005370643A2087
:0603F6000075433A2000EF
:00000001FF
