S01B00006A6465666F3030325F6C6162345F70617274312E7372656366
S11300000C942A000C9447000C9447000C9447006D
S11300100C9447000C9447000C9447000C94470040
S11300200C9447000C9447000C9447000C94470030
S11300300C9447000C9447000C9447000C94470020
S11300400C9447000C9447000C9447000C94470010
S11300500C94470011241FBECFE5D8E0DEBFCDBF0E
S113006010E0A0E6B0E0E2E4F1E002C005900D92F9
S1130070A236B107D9F720E0A2E6B0E001C01D9294
S1130080A336B207E1F70E9490000C949F000C94F1
S1130090000080916200811142C089B38D3028F044
S11300A08091600080628093600089B38A3028F078
S11300B08091600080618093600089B3873028F06C
S11300C08091600088608093600089B3853028F057
S11300D08091600084608093600089B3833028F04D
S11300E08091600082608093600089B3882329F046
S11300F08091600081608093600089B3853028F42A
S11301008091600080648093600089B3853028F01A
S1130110809160008F7B809360001092620008954C
S11301201ABA8FEF8BBB84BB15BA17BA18BA11BAB7
S113013012BA0E9449008091600085BBFACFF894FE
S1050140FFCFEB
S10501427F0038
S9030000FC
