S01B00006A6465666F3030325F6C6162335F70617274332E7372656365
S11300000C942A000C943C000C943C000C943C008E
S11300100C943C000C943C000C943C000C943C006C
S11300200C943C000C943C000C943C000C943C005C
S11300300C943C000C943C000C943C000C943C004C
S11300400C943C000C943C000C943C000C943C003C
S11300500C943C0011241FBECFE5D8E0DEBFCDBF19
S113006020E0A0E6B0E001C01D92A736B207E1F798
S11300700E9445010C946C010C94000090E002C0B5
S1130080959587956A95E2F7817008958091660049
S1130090823009F45BC030F4882369F0813009F0C0
S11300A0B5C040C0843009F481C008F47BC08530F9
S11300B009F0ACC0A8C080916200882369F08091E7
S11300C0650081111EC08091640081111AC0809165
S11300D06300811116C01DC080916500882349F01A
S11300E08091640081110DC080916300811109C069
S11300F010C090916400992361F09091630099235A
S113010021F084E080936600A2C0882309F48CC0A7
S1130110B0C080916300882309F4ABC086E080936B
S11301206600A0C08091640081110CC080916500BC
S1130130882321F085E0809366008DC083E080935E
S113014066007FC082E08093660077C08091620081
S1130150882369F08091650081111CC0809164003E
S1130160811118C080916300811114C017C080915F
S11301706500882309F480C08091640081110AC05D
S113018080916300811106C07CC080916300882344
S113019009F453C084E08093660059C083E08093DF
S11301A066004FC080916400811100C0809162009C
S11301B0882369F08091650081111EC080916400DC
S11301C081111AC080916300811116C019C08091F9
S11301D06500882349F08091640081110DC08091ED
S11301E06300811109C00CC080916400882341F030
S11301F080916300882321F084E08093660027C007
S11302001092660036C01092660033C08330C9F085
S113021028F4813049F0823061F50FC08530D9F07F
S1130220B0F0863031F51EC082E08093660081E034
S11302308093600080936100089582E08093610060
S113024008951092600083E080936100089584E033
S1130250809361000895C09A1092600085E08093B5
S113026061000895C0981092660086E08093610052
S1130270089510926100089580916400811185CFE2
S11302808DCF85E080936600E6CF8FEF87BB18BAE9
S113029084BB15BA1ABA8BBB1092660089B360E0AE
S11302A00E943E008093620089B361E00E943E0098
S11302B08093650089B362E00E943E0080936400ED
S11302C089B367E00E943E00809363000E94460069
S10F02D08091610085BBE2CFF894FFCF61
S9030000FC
