S02B00006D746177613030325F6A6465666F3030325F6C6162385F70617274325F73657276616E742E73726547
S11300005AC0000075C0000073C0000071C0000039
S11300106FC000006DC000006BC0000069C000002C
S113002067C0000065C0000063C0000061C000003C
S11300305FC0000098C000005BC0000059C0000011
S113004057C0000055C0000053C0000059C0000054
S11300504FC000004DC000004BC0000049C000006C
S113006047C0000045C0000043C0000041C000007C
S11300703FC000003DC000003BC0000039C000008C
S113008037C0000035C0000033C00000FA00FE0095
S11300900F01410151016C017C019701A701C001CD
S11300A0D001FA010102040216021E0230023802D3
S11300B049025102630211241FBECFEFD0E4DEBF18
S11300C0CDBF11E0A0E0B1E0E6E3F5E000E00BBF56
S11300D002C007900D92A031B107D9F721E0A0E149
S11300E0B1E001C01D92AD31B207E1F7F7D121C2F1
S11300F087CF80E484B980EB85B980EC8CBD08950A
S11301001F920F920FB60F9211248F938EB5809386
S11301101B018F910F900FBE0F901F9018958BE0CD
S1130120809381008DE790E090938900809388000C
S113013082E080936F001092850010928400809179
S11301400C0190910D01A0910E01B0910F018093CB
S1130150160190931701A0931801B09319018FB75A
S113016080688FBF08951F920F920FB60F921124CB
S11301708F939F93AF93BF93809116019091170132
S1130180A0911801B09119010197A109B1098093B7
S1130190160190931701A0931801B0931901892BAC
S11301A08A2B8B2B99F481E080931A0180910C01A6
S11301B090910D01A0910E01B0910F018093160151
S11301C090931701A0931801B0931901BF91AF91B7
S11301D09F918F910F900FBE0F901F901895809153
S11301E01C0190E08B30910508F0F5C0FC01EA5B3E
S11301F0FF4F99C181E080931C01FCC080911301E1
S1130200882309F4F7C092E090931C01982F9F7003
S11302109093150182958F7080931401DFC09091A3
S1130220130180911B01981304C080911401811162
S113023004C081E080931C01DDC0813031F4109250
S1130240110183E080931C01DFC0823031F41092ED
S1130250110185E080931C01F1C0833049F480E8EA
S1130260809312011092110187E080931C0100C158
S1130270843009F0C6C01092110189E080931C01FA
S113028010C19091130180911B01981721F081E016
S113029080931C01AFC084E080931C011092110173
S11302A09DC09091130180911B01981721F081E06A
S11302B080931C019FC0E0911501F0E0EA5FFE4FBE
S11302C0908180911101891708F4B0C083E0809374
S11302D01C011092110182C09091130180911B01A5
S11302E0981721F081E080931C0184C086E08093FC
S11302F01C011092110172C09091130180911B0195
S1130300981721F081E080931C0174C0E0911501DD
S1130310F0E0EA5FFE4F908180911101891708F4A3
S11303209FC085E080931C011092110157C09091E9
S1130330130180911B01981721F081E080931C0127
S113034059C088E080931C011092110147C090911C
S1130350130180911B01981721F081E080931C0107
S113036049C0E0911501F0E0EA5FFE4F9081809171
S11303701101891708F48DC087E080931C0178C0AF
S11303809091130180911B01981721F081E08093D3
S11303901C0130C08AE080931C01109211011EC020
S11303A09091130180911B01981721F081E08093B3
S11303B01C0120C0E0911501F0E0EA5FFE4F90813E
S11303C080911101891708F47EC089E080931C0193
S11303D01092110103C010921C017DC080911C0178
S11303E090E0FC013197EA30F10508F074C0EF5A4F
S11303F0FF4F99C080911B018093130181E08BB959
S1130400089582E08BB9089580911001682F61707E
S113041070E0FB01EC5FFE4F808182B98091100196
S11304208F5F8093100183E08BB90895809111014F
S11304308F5F8093110184E08BB90895809110013E
S1130440482F417050E0FA01EE5FFE4F808182B97F
S1130450809110018F5F8093100185E08BB908951E
S1130460809111018F5F8093110186E08BB908950B
S11304708091120182B980911201813021F480E8C7
S11304808093120103C086958093120187E08BB993
S11304900895809111018F5F8093110188E08BB9D9
S11304A0089580911001282F217030E0F901E05067
S11304B0FF4F808182B9809110018F5F809310017A
S11304C089E08BB90895809111018F5F80931101A8
S11304D08AE08BB908958BE08BB908958FEF81B9C9
S11304E012B88AB91BB81BDE82E390E0A0E0B0E04A
S11304F080930C0190930D01A0930E01B0930F0112
S11305008093160190931701A0931801B0931901D9
S1130510F0DDCFE0CBB963DE80911A018823E1F3EB
S113052010921A01F7CFEE0FFF1F0590F491E02D02
S10905300994F894FFCFCA
S1130536CC33AA55F00F28140A0502010100000065
S9030000FC
