:100000004CC0000067C0000065C0000063C0000075
:1000100061C000005FC000005DC000005BC0000068
:1000200059C0000057C0000055C0000053C0000078
:1000300051C00000CAC200004DC000004BC000000B
:1000400049C0000047C0000045C0000043C0000098
:1000500041C000003FC000003DC000003BC00000A8
:1000600039C0000037C0000035C0000033C00000B8
:1000700031C000002FC000002DC000002BC00000C8
:1000800029C0000027C0000025C00000EF0091003B
:100090009C00A700B200BB00C00011241FBECFEF20
:1000A000D0E4DEBFCDBF11E0A0E0B1E0E8E8F7E0CA
:1000B00000E00BBF02C007900D92A630B107D9F740
:1000C00021E0A6E0B1E001C01D92A534B207E1F73E
:1000D000CAD258C395CF27E030E0E8E890E0E8B90D
:1000E00078B1AC01022E02C0559547950A94E2F70B
:1000F0004170472B48B9429A2150310980F761116C
:1001000002C0419A03C0613009F4469A18B80895B4
:1001100001968730910508F072C08A5B9F4FFC0101
:100120002BC38091100181115AC080910A0188234C
:10013000C1F1813069F558C08091100181114FC023
:1001400080910A018823B1F1813059F521C0809155
:100150001001811144C080910A018823A1F18130EE
:1001600049F51FC080911001811139C080910A01A9
:10017000813049F51FC080911001811130C034C019
:100180008091100181112BC080910A0181112CC036
:1001900060E081E8A0DF61E081E89DDF80E090E041
:1001A00030C060E083EC97DF61E083EC94DF81E0B6
:1001B00090E027C060E087EE8EDF61E087EE8BDFA6
:1001C00082E090E01EC060E08FEF85DF61E08FEF9E
:1001D00082DF81E080930A0183E090E012C01092F8
:1001E0000A0184E090E00DC060E080E074DF61E02F
:1001F00080E071DF10920A0185E090E002C08FEF8D
:100200009FEF8093410108950F931F93CF93DF9346
:10021000009731F08130910541F00196A1F509C0B8
:1002200080911001823029F409C080911001823040
:1002300029F01092090180E090E02AC01091090194
:100240001031C0F4C0910701D09108010C2F029524
:10025000007F0C2B60E0802F3EDF61E0802F3BDFD2
:100260001F5F109309012196D0930801C0930701E5
:10027000103160F0109209011092080110920701EC
:1002800081E090E005C08FEF9FEF02C081E090E039
:1002900080934301DF91CF911F910F9108951F9398
:1002A000CF93DF93EC0110B110951370813091055D
:1002B000C9F03CF4CF3F8FEFD807C9F1CD2B41F007
:1002C0009FC082309105C9F08330910501F198C03B
:1002D00080911001882359F1813009F447C08230A0
:1002E00031F561C080911001813009F43FC0823046
:1002F00009F459C08823D9F039C0809110018230A7
:1003000009F451C0813091F1882389F04CC080916B
:100310001001833039F460E080E0DDDE61E080E0F0
:10032000DADE7AC0823009F43EC0811175C0133024
:1003300061F483E08093100160E080E0CCDE61E056
:1003400080E0C9DEC0E0D0E06AC0113031F481E065
:1003500080931001C0E0D0E062C0123009F053C0B9
:1003600082E080931001C0E0D0E059C0133061F406
:1003700083E08093100160E080E0ADDE61E080E02A
:10038000AADEC1E0D0E04BC0113031F482E08093AE
:100390001001C1E0D0E043C01230C1F5109210014D
:1003A000C1E0D0E03CC0133061F483E080931001E1
:1003B00060E080E090DE61E080E08DDEC2E0D0E0D1
:1003C0002EC0113029F410921001C2E0D0E027C0F5
:1003D0001230F9F481E080931001C2E0D0E01FC038
:1003E000109210011CC0123021F482E080931001A1
:1003F00016C060E080E06FDE60E080E06CDE0FC081
:10040000CFEFDFEF0CC0C0E0D0E009C0C1E0D0E02A
:1004100006C0C2E0D0E003C0113029F7E1CFC0939D
:100420004401CE01DF91CF911F910895CF930097A2
:1004300039F08130910549F0019609F055C009C0A5
:1004400080911001813029F40CC08091100181301D
:1004500041F01092060181E08093000180E090E07D
:1004600048C080910601811122C08091000188233B
:100470006CF0C82FCC0FC093000160E08C2F2BDEF6
:1004800061E08C2F28DE81E090E033C0882379F191
:10049000C82FC695C093000160E08C2F1CDE61E080
:1004A0008C2F19DE81E08093060190E022C0C0917C
:1004B0000001C13069F41092060182E080930001CE
:1004C00060E009DE61E082E006DE81E090E011C0DC
:1004D000C695C093000160E08C2FFDDD61E08C2F9C
:1004E000FADD81E090E005C08FEF9FEF02C081E070
:1004F00090E080934201CF910895EF92FF920F9385
:100500001F93CF93DF9381E080930F01C1E1D1E08E
:100510000F2EF1E4EF2EF1E0FF2EF02D8E014E8133
:100520005F81688579858A819B81AC81BD8148170F
:1005300059076A077B0758F0EA85FB85888199810E
:100540000995998388831E821F8218861986F8016F
:1005500086819781A085B18586509F4FAF4FBF4F51
:1005600086839783A087B1872C96CE15DF05B1F6D9
:1005700010920F01DF91CF911F910F91FF90EF909B
:1005800008958BE0809381008DE790E0909389003F
:100590008093880082E080936F0010928500109213
:1005A00084008091010190910201A0910301B0911A
:1005B000040180930B0190930C01A0930D01B09363
:1005C0000E018FB780688FBF08951F920F920FB6EC
:1005D0000F9211240BB60F922F933F934F935F937B
:1005E0006F937F938F939F93AF93BF93EF93FF93FB
:1005F00080910B0190910C01A0910D01B0910E0121
:100600000197A109B10980930B0190930C01A0936C
:100610000D01B0930E01892B8A2B8B2B89F46DDF92
:100620008091010190910201A0910301B091040118
:1006300080930B0190930C01A0930D01B0930E01D8
:10064000FF91EF91BF91AF919F918F917F916F91AA
:100650005F914F913F912F910F900BBE0F900FBE66
:100660000F901F90189511B88FEF82B987B918B8FD
:100670002FEF3FEF30931201209311018AEF90E0AA
:10068000A0E0B0E08093130190931401A0931501B2
:10069000B09316018093170190931801A09319014C
:1006A000B0931A0148E850E050931C0140931B019D
:1006B00030931E0120931D0180931F019093200110
:1006C000A0932101B09322018093230190932401F0
:1006D000A0932501B093260144E051E050932801F6
:1006E0004093270130932A012093290144EF51E0E0
:1006F00060E070E040932B0150932C0160932D013A
:1007000070932E0140932F0150933001609331017B
:10071000709332014FE451E0509334014093330120
:10072000309336012093350180933701909338013F
:10073000A0933901B0933A0180933B0190933C011F
:10074000A0933D01B0933E0126E132E03093400199
:1007500020933F018093010190930201A093030134
:10076000B093040180930B0190930C01A0930D01B1
:10077000B0930E0106DFFFCFEE0FFF1F0590F4913F
:08078000E02D0994F894FFCF6D
:0607880001010000000069
:00000001FF
