S02400006D746177613030325F6A6465666F3030325F6C6162395F70617274332E737265634B
S113000045C0000060C000005EC000005CC000008D
S11300105AC0000058C0000056C0000054C0000080
S113002052C0000050C000004EC000004CC0000090
S11300304AC00000BBC0000046C0000044C000002D
S113004042C0000040C000003EC000003CC00000B0
S11300503AC0000038C0000036C0000034C00000C0
S113006032C0000030C000002EC000002CC00000D0
S11300702AC0000028C0000026C0000024C00000E0
S113008022C0000020C000001EC0000011241FBEBA
S1130090CFEFD0E4DEBFCDBF11E0A0E0B1E0E6EFEA
S11300A0F6E000E00BBF02C007900D92AE30B1073E
S11300B0D9F721E0AEE0B1E001C01D92AF31B20743
S11300C0E1F73BD116C39CCF8FEE8BB90000489B60
S11300D029C0499B29C04A9B29C04B9B29C08FED4D
S11300E08BB90000489B26C0499B26C04A9B26C06A
S11300F04B9B26C08FEB8BB90000489B23C0499BC8
S113010023C04A9B23C04B9B23C08FE78BB90000BD
S1130110489B20C0499B20C04A9B20C04B9920C0CB
S113012084E4089581E3089584E3089587E30895BA
S11301308AE2089582E3089585E3089588E30895A3
S113014080E3089583E3089586E3089589E3089599
S113015083E2089581E4089582E4089583E4089590
S113016081E208958BE0809381008DE790E0909385
S113017089008093880082E080936F00109285004C
S11301801092840080910A0190910B01A0910C01BE
S1130190B0910D018093130190931401A093150164
S11301A0B09316018FB780688FBF08951F920F9286
S11301B00FB60F9211248F939F93AF93BF938091A7
S11301C0130190911401A0911501B09116010197AA
S11301D0A109B1098093130190931401A09315010F
S11301E0B0931601892B8A2B8B2B99F481E0809391
S11301F0170180910A0190910B01A0910C01B0911B
S11302000D018093130190931401A0931501B093F1
S11302101601BF91AF919F918F910F900FBE0F90D8
S11302201F90189580911801813049F020F0823098
S113023009F43DC054C081E0809318015AC08091F4
S11302400E01833211F582E0809318018BE191E075
S11302502BD2909301018093000110920F01BC01F5
S1130260882777FD8095982F30D120E030E044EB4B
S113027050E490D020E030E040E852E4B2D1F2D033
S113028070931A01609319012DC0811102C018B82E
S113029029C090910F01E92FF0E0E55EFE4F8083C5
S11302A09F5F90930F0181E08093180122C02091F9
S11302B01001309111018091190190911A01821756
S11302C093071CF085E088B90DC081E08093180184
S11302D010921101109210018AE088B903C01092A3
S11302E01801089580911801813019F0823049F085
S11302F00895E0911201F0E0EE5FFE4F808182B933
S1130300089580911201883010F010921201E0914A
S11303101201F0E0EE5FFE4F808182B980911201FC
S11303208F5F8093120180911001909111010196C9
S11303309093110180931001089514B88FEF85B93B
S113034081B912B890EF9AB99FE09BB987B918B8F0
S113035083E090E0A0E0B0E080930A0190930B0169
S1130360A0930C01B0930D01809313019093140199
S1130370A0931501B0931601F5DE10921801A4DEC6
S113038080930E014FDF809117018823E1F31092CF
S11303901701F5CF0CD0EBC0E3D040F0DAD030F049
S11303A021F45F3F19F0CCC0511115C1CFC0F0D07A
S11303B098F39923C9F35523B1F3951B550BBB2728
S11303C0AA2762177307840738F09F5F5F4F220FD5
S11303D0331F441FAA1FA9F333D00E2E3AF0E0E8CE
S11303E030D091505040E695001CCAF729D0FE2F1A
S11303F027D0660F771F881FBB1F261737074807AC
S1130400AB07B0E809F0BB0B802DBF01FF27935861
S11304105F4F2AF09E3F510568F092C0DCC05F3FF9
S1130420ECF3983EDCF3869577956795B795F79549
S11304309F5FC9F7880F911D9695879597F9089541
S1130440E1E0660F771F881FBB1F621773078407DD
S1130450BA0720F0621B730B840BBA0BEE1F88F7EC
S1130460E095089504D06894B111B5C0089598D06A
S113047088F09F5790F0B92F9927B751A0F0D1F089
S1130480660F771F881F991F1AF0BA95C9F712C013
S1130490B13081F09FD0B1E008959CC0672F782FD0
S11304A08827B85F39F0B93FCCF38695779567957F
S11304B0B395D9F73EF490958095709561957F4FEB
S11304C08F4F9F4F0895E89409C097FB3EF4909591
S11304D08095709561957F4F8F4F9F4F9923A9F019
S11304E0F92F96E9BB279395F695879577956795A8
S11304F0B795F111F8CFFAF4BB0F11F460FF1BC0EC
S11305006F5F7F4F8F4F9F4F16C0882311F096E97E
S113051011C0772321F09EE8872F762F05C066232C
S113052071F096E8862F70E060E02AF09A95660FE5
S1130530771F881FDAF7880F9695879597F908959E
S113054097F99F6780E870E060E008959FEF80EC82
S1130550089500240A941616170618060906089525
S113056000240A9412161306140605060895092E8B
S11305700394000C11F4882352F0BB0F40F4BF2BFA
S113058011F460FF04C06F5F7F4F8F4F9F4F08953A
S113059057FD9058440F551F59F05F3F71F0479530
S11305A0880F97FB991F61F09F3F79F08795089515
S11305B0121613061406551FF2CF4695F1DF08C034
S11305C0161617061806991FF1CF86957105610551
S11305D008940895E894BB2766277727CB0197F9F9
S11305E008950BD0C4CFB5DF28F0BADF18F09523F7
S11305F009F0A6CFABCF1124EECFCADFA0F3959FAD
S1130600D1F3950F50E0551F629FF001729FBB27F5
S1130610F00DB11D639FAA27F00DB11DAA1F649FA1
S11306206627B00DA11D661F829F2227B00DA11D54
S1130630621F739FB00DA11D621F839FA00D611DDA
S1130640221F749F3327A00D611D231F849F600DFB
S1130650211D822F762F6A2F11249F5750408AF034
S1130660E1F088234AF0EE0FFF1FBB1F661F771FC0
S1130670881F91505040A9F79E3F510570F060CFFC
S1130680AACF5F3FECF3983EDCF3869577956795A8
S1130690B795F795E7959F5FC1F7FE2B880F911DDE
S11306A09695879597F90895FC0188279927E894EA
S11306B021912032E9F3293010F02E30C8F32B3287
S11306C039F02D3231F4689403C00BD0820F911DA0
S11306D0219120532A30C8F31EF4909581959F4FA1
S11306E008957AE0979F902D879F802D910D112476
S10906F00895F894FFCF09
S11106F6B40001030206040C08090100000010
S9030000FC
