S01B00006A6465666F3030325F6C6162335F70617274342E7372656364
S11300000C942A000C943C000C943C000C943C008E
S11300100C943C000C943C000C943C000C943C006C
S11300200C943C000C943C000C943C000C943C005C
S11300300C943C000C943C000C943C000C943C004C
S11300400C943C000C943C000C943C000C943C003C
S11300500C943C0011241FBECFE5D8E0DEBFCDBF19
S113006020E0A0E6B0E001C01D92A836B207E1F797
S11300700E9476010C949D010C94000090E002C053
S1130080959587956A95E2F7817008958091670048
S1130090833009F490C030F4813009F443C008F08F
S11300A055C009C0853009F4B7C008F488C087304A
S11300B009F0C5C0B4C080916300882369F08091C1
S11300C0660081111EC08091650081111AC0809163
S11300D06400811116C01DC080916600882349F018
S11300E08091650081110DC080916400811109C067
S11300F010C090916500992361F090916400992358
S113010021F084E080936700BFC0882309F4A9C06C
S1130110E1C080916400882309F4DCC086E0809308
S11301206700C0C08091650081110CC08091660099
S1130130882321F085E080936700AAC083E0809340
S113014067009CC082E08093670094C08091630044
S1130150882369F08091660081111BC0809165003D
S1130160811117C080916400811113C020C0809157
S11301706600882309F4B5C080916500811109C027
S113018080916400811105C0A8C080916400882317
S113019021F084E08093670077C080916100882318
S11301A009F468C080916000811185C063C083E058
S11301B08093670063C080916500811100C08091C5
S11301C06300882369F08091660081111EC08091CC
S11301D0650081111AC080916400811116C019C094
S11301E080916600882349F08091650081110DC0DB
S11301F080916400811109C00CC08091650088233E
S113020041F080916400882321F084E080936700AA
S11302103BC0109267005EC0109267005BC0809183
S11302206500882319F01092670054C0809166001D
S1130230882309F440C088E08093670042C084307A
S113024019F138F48230B1F0C8F4813009F042C0B9
S113025008C0863039F1E0F0873069F18830D1F593
S113026030C082E08093670081E0809361008093D6
S11302706200089582E08093620008951092610004
S113028083E080936200089584E08093620008957F
S1130290C09A1092610085E08093620081E08093AF
S11302A060000895C0981092670086E08093620011
S11302B010926000089587E0809362008093670045
S11302C0089588E080936200C098109260001092B4
S11302D06700089510926200089585E08093670096
S11302E0D7CF80916500811150CF61CF8FEF87BB4D
S11302F018BA84BB15BA1ABA8BBB1092670089B3BB
S113030060E00E943E008093630089B361E00E9434
S11303103E008093660089B362E00E943E008093B1
S1130320650089B367E00E943E00809364000E94E8
S111033046008091620085BBE2CFF894FFCFB7
S9030000FC
