:100000000C942A000C9447000C9447000C94470071
:100010000C9447000C9447000C9447000C94470044
:100020000C9447000C9447000C94A0000C944700DB
:100030000C9447000C9447000C9447000C94470024
:100040000C9447000C9447000C9447000C94470014
:100050000C94470011241FBECFE5D8E0DEBFCDBF12
:1000600010E0A0E6B0E0EEE5FAE002C005900D92E7
:10007000AA38B107D9F720E0AAE8B0E001C01D9284
:10008000A73CB207E1F70E9409050C942D050C94DA
:100090000000442351F041E050E09A0102C0220FD9
:1000A000331F6A95E2F7822B089521E030E0A90121
:1000B00002C0440F551F6A95E2F7BA016095862386
:1000C000089521E030E0A90102C0440F551F6A9550
:1000D000E2F7842308956093640070936500809331
:1000E00066009093670060938E0070938F008093FA
:1000F00090009093910008958BE083BF8DE78CBFB3
:1001000082E089BF12BE8091640090916500A09149
:100110006600B091670080938E0090938F00A0934B
:100120009000B09391008FB780688FBF089581E0F1
:1001300080939200809197008F5F8093970008953D
:100140001F920F920FB60F9211242F933F934F934C
:100150005F936F937F938F939F93AF93BF93EF932F
:10016000FF9380918E0090918F00A0919000B091AC
:1001700091000197A109B10980938E0090938F009F
:10018000A0939000B0939100892B8A2B8B2B91F434
:100190000E9497008091640090916500A091660094
:1001A000B091670080938E0090938F00A093900091
:1001B000B0939100FF91EF91BF91AF919F918F917B
:1001C0007F916F915F914F913F912F910F900FBE53
:1001D0000F901F9018958FEE85BB000083B360E0F1
:1001E0000E946100882309F46DC083B361E00E941E
:1001F0006100882309F468C083B362E00E94610053
:10020000882309F463C083B363E00E9461008823FC
:1002100009F45EC08FED85BB000083B360E00E94EF
:100220006100882309F456C083B361E00E94610035
:10023000882309F451C083B362E00E9461008823DF
:1002400009F44CC083B363E00E946100882309F481
:1002500047C08FEB85BB000083B360E00E94610064
:10026000882309F43FC083B361E00E9461008823C2
:10027000D9F183B362E00E9461008823B9F183B3AE
:1002800063E00E946100882399F18FE785BB00003D
:1002900083B360E00E946100882361F183B361E071
:1002A0000E946100882341F183B362E00E946100F3
:1002B000882321F183B363E00E946100811120C093
:1002C00084E4089581E0089584E0089587E0089526
:1002D0008AE2089582E0089585E0089588E008950F
:1002E00080E3089583E0089586E0089589E0089505
:1002F00083E2089581E4089582E4089583E40895F3
:100300008AE208958091C600813051F128F0823050
:1003100051F1833071F52AC00E94EB0080938D006B
:100320008A3219F41092C6000895809195008111C7
:1003300004C081E08093C60089C08091940081113F
:1003400004C082E08093C6001CC08091930081119C
:1003500004C083E08093C60047C01092C600089591
:100360001092C60008951092C60008951092C6001B
:100370000895823031F08330B9F1813009F097C0AF
:1003800065C080918D00823021F482E480939600D4
:100390000895833021F485E4809396000895843095
:1003A00021F488E4809396000895853021F48BE44D
:1003B000809396000895863021F48EE48093960011
:1003C0000895873021F482E580939600089588305F
:1003D00021F485E5809396000895893009F067C07F
:1003E00088E580939600089580918D00823021F4F5
:1003F00083E4809396000895833021F486E480930B
:1004000096000895843021F489E48093960008953D
:10041000853021F48CE4809396000895863021F491
:100420008FE4809396000895873021F483E58093CC
:1004300096000895883021F486E58093960008950B
:100440008930A9F589E580939600089580918D0003
:10045000823021F481E4809396000895833021F462
:1004600084E4809396000895843021F487E4809397
:1004700096000895853021F48AE4809396000895CB
:10048000863021F48DE4809396000895873021F41E
:1004900080E5809396000895883021F484E5809368
:1004A00096000895893019F487E5809396000895A1
:1004B00089B381708093950099B392709093940062
:1004C00029B3247020939300811103C088E08BBB73
:1004D00009C0911103C080E18BBB04C0211102C08F
:1004E00080E28BBB0E9482018FEF9FEF08951F93E4
:1004F000CF93DF93182FC0916000D091610040E04E
:1005000063E088810E9449008883E0916200F09155
:1005100063001083C0916000D091610041E064E00D
:1005200088810E9449008883DF91CF911F910895AF
:10053000CF93DF93C0916000D091610040E064E010
:1005400088810E9449008883DF91CF9108951F938D
:10055000CF93DF93182FC0916000D091610041E0EC
:1005600063E088810E9449008883E0916200F091F5
:1005700063001083C0916000D091610041E064E0AD
:1005800088810E9449008883DF91CF911F9108954F
:10059000CF93DF93C0916000D091610040E064E0B0
:1005A00088810E9449008883DF91CF910895883027
:1005B00020F480580E947702089588540E947702A0
:1005C0000895CF938091B400853009F442C078F447
:1005D000823069F130F48823D9F0813009F073C09A
:1005E0001DC0833051F1843009F06DC02CC08830BB
:1005F00009F448C030F4863091F1873009F063C0C7
:1006000039C0893009F444C08A3009F05CC053C055
:1006100081E08093B4001092990058C080919900B5
:100620008A3008F470C082E08093B40072C083E026
:100630008093B4000E94980249C084E08093B40083
:100640000E94980243C085E08093B4000E94980203
:100650003DC086E08093B4000E94980237C080912C
:100660008A00882309F465C010928B0087E080938C
:10067000B40063C088E08093B4000E949802109296
:10068000990024C089E08093B4000E9498021EC0A3
:10069000C0919900C03148F488E08093B4000E9472
:1006A000C802CF5FC093990011C08AE08093B40064
:1006B0000E94C8020BC080918A0081114FC086E061
:1006C0008093B40036C01092B4001AC08091B40078
:1006D000843039F140F48130B1F090F08230C9F0CB
:1006E0008330E1F51AC0873041F128F48530E9F014
:1006F0008630A1F51EC0883021F1893079F526C0F9
:1007000010928B002BC0809199008F5F809399008D
:1007100025C088E30E94770221C086E00E9477020C
:100720001DC08FE00E94770219C081E00E9477020D
:1007300015C081E080938B0011C081E00E94770298
:100740000DC0809199000E94D70208C0E0919900E5
:10075000F0E0EB54FF4F80810E94A702CF910895F3
:100760008091B3008230C9F028F4882349F08130A9
:10077000E9F50AC0843051F128F18530B9F52CC073
:1007800081E08093B300089580918B00882309F461
:100790004EC082E08093B300089590918D008091C7
:1007A0008C00981709F443C083E08093B300309124
:1007B000960040919800E8E6F0E0A5EBB0E088E70D
:1007C00090E022C084E08093B300089510928A00E4
:1007D00085E08093B300089590918D0080918C0006
:1007E000981729F181E08093B30008951092B30027
:1007F00010928A0081E1E8E7F0E0A5EBB0E001901B
:100800000D928A95E1F708952191231302C03C933C
:100810004F5F1196E817F907B9F74093980080E108
:1008200080939A001092C50081E080938A00089519
:100830000E94E1020E94B00381E090E0089588EFF9
:100840008ABB1BBA80EF84BB8FE085BB8FEF8093A0
:10085000C6008FE58093B50008958FEF87BB81BBFD
:1008600098EF9ABB8093B4008093B30008950F93E0
:100870001F93CF93DF93B62FA72FF82FE92F022FC7
:10088000132FD42FC52F04C0052F142FD32FC22F01
:100890006B2F7A2F8F2F9E2F202F312F4D2F5C2FD4
:1008A0000E940B05B02FA12FFD2FEC2F562F472FA5
:1008B000382F292F672B682B692B31F7602F712F69
:1008C0008D2F9C2FDF91CF911F910F910895CF9382
:1008D000DF9300D000D0CDB7DEB70E941F040E9486
:1008E0002D042AE030E040E050E06AE070E080E073
:1008F00090E00E9437046B017C016AE070E080E0C8
:1009000090E0A70196010E940B05EBE9F0E0FA8365
:10091000E983A6EAB0E0BC83AB836FEF6083ECE9C8
:10092000F0E02083318342835383E0EAF0E02083C8
:1009300031834283538388E194E09093A5008093B0
:10094000A4006C93E7EAF0E0208331834283538371
:10095000EBEAF0E0208331834283538388E592E021
:100960009093B0008093AF00C701B6010E946B0066
:100970000E947C0000E010E0E12CF12C3BC0F8016B
:10098000EE0FFF1F81E090E08C0F9D1FE80FF91F15
:10099000C080D180D60115964D915D916D917C916D
:1009A000189711968D919D910D90BC91A02D48178F
:1009B00059076A077B0781F4F60180810184F2857B
:1009C000E02D992787FD90950995D6018C93F60126
:1009D0001582168217821086F60185819681A7817D
:1009E000B0850196A11DB11D85839683A783B0872D
:1009F0000F5F1F4F0230110510F281E090E00E945E
:100A00001804809192008823E1F3109292008701EC
:100A1000F1CF0E946704A1E21A2EAA1BBB1BFD01A5
:100A20000DC0AA1FBB1FEE1FFF1FA217B307E407CD
:100A3000F50720F0A21BB30BE40BF50B661F771F25
:100A4000881F991F1A9469F7609570958095909505
:0E0A50009B01AC01BD01CF010895F894FFCFCA
:100A5E0038003200010000004144474A4D505457BF
:100A6E0042434546000000005F5F5F5F5F5F5F5F70
:0A0A7E005F5F5F5F5F5F5F5F000076
:00000001FF
