:100000000C942A000C9434000C9434000C943400AA
:100010000C9434000C9434000C9434000C94340090
:100020000C9434000C9434000C9434000C94340080
:100030000C9434000C9434000C9434000C94340070
:100040000C9434000C9434000C9434000C94340060
:100050000C94340011241FBECFE5D8E0DEBFCDBF25
:100060000E943E000C944E000C94000090E002C0F0
:10007000959587956A95E2F7817008951ABA8FEF82
:100080008BBB84BB15BACFE789B360E00E94360012
:10009000811102C0C5BBF8CF15BAF6CFF894FFCFD7
:00000001FF
