:100000004EC0000069C0000067C0000065C000006D
:1000100063C0000061C000005FC000005DC0000060
:100020005BC0000059C0000057C0000055C0000070
:1000300053C00000BFC000004FC000004DC0000012
:100040004BC0000049C0000047C0000045C0000090
:1000500043C0000041C000003FC000003DC00000A0
:100060003BC0000039C0000037C0000035C00000B0
:1000700033C0000031C000002FC000002DC00000C0
:100080002BC0000029C0000027C0000066026C02DF
:100090007A0288029602A402B202C002CE021124A1
:1000A0001FBECFEFD0E4DEBFCDBF11E0A0E0B1E0D6
:1000B000EAE3F6E000E00BBF02C007900D92A43027
:1000C000B107D9F721E0A4E0B1E001C01D92AB3047
:1000D000B207E1F779D2AFC293CFCF93DF9300D0CD
:1000E00000D0CDB7DEB769837A838B839C83898107
:1000F0009A81AB81BC818093000190930101A09310
:100100000201B09303018091000190910101A0913F
:100110000201B09103018093050190930601A09321
:100120000701B09308010F900F900F900F90DF918F
:10013000CF910895CF93DF93CDB7DEB781E890E0FC
:100140002BE0FC01208388E890E02DE730E0FC0103
:10015000318320838FE690E022E0FC01208384E855
:1001600090E0FC01118210828091000190910101C8
:10017000A0910201B09103018093050190930601C3
:10018000A0930701B09308018FE590E02FE530E0E0
:10019000F90120812068FC012083DF91CF9108952F
:1001A000CF93DF93CDB7DEB781E080930401DF9179
:1001B000CF9108951F920F9200905F000F9211242B
:1001C00000905B000F922F933F934F935F936F9339
:1001D0007F938F939F93AF93BF93EF93FF93CF93AF
:1001E000DF93CDB7DEB78091050190910601A09114
:1001F0000701B09108010197A109B1098093050198
:1002000090930601A0930701B09308018091050126
:1002100090910601A0910701B09108010097A105F6
:10022000B10589F4BDDF8091000190910101A09199
:100230000201B09103018093050190930601A09300
:100240000701B0930801DF91CF91FF91EF91BF912A
:10025000AF919F918F917F916F915F914F913F915E
:100260002F910F9000925B000F9000925F000F9013
:100270001F901895CF93DF93CDB7DEB78AE790E054
:100280002AE730E0F9012081206EFC012083DF9114
:10029000CF910895CF93DF931F92CDB7DEB78983B7
:1002A0008CE790E02981283028F02CE730E0F90134
:1002B000208101C02981FC0120831092090106C020
:1002C0000000809109018F5F8093090180910901ED
:1002D0008F30B0F30F90DF91CF910895CF93DF93DC
:1002E00000D000D0CDB7DEB780E0D4DF88E790E063
:1002F000FC01808191819A83898381E0CBDF88E74B
:1003000090E0FC01808191819C838B8380910A0124
:10031000882F90E0009741F099230CF4BEC08A30FA
:1003200091050CF0BAC004C081E080930A01B8C006
:1003300089819A818F3FF1E09F07B0F089819A818E
:10034000823022E0920780F48B819C818430E2E04D
:100350009E0750F08B819C818C30F2E09F0720F447
:1003600081E080930A0198C089819A818E3F21E0C3
:10037000920780F48B819C818430E2E09E0750F0EC
:100380008B819C818C30F2E09F0720F482E0809387
:100390000A0182C089819A81833022E0920780F02D
:1003A0008B819C818430E2E09E0750F08B819C81A0
:1003B0008C30F2E09F0720F483E080930A016CC048
:1003C00089819A818F3F21E0920780F089819A810B
:1003D0008230E2E09E0750F48B819C818330F2E012
:1003E0009F0720F485E080930A0156C089819A8195
:1003F0008F3F21E0920780F089819A818230E2E08C
:100400009E0750F48B819C818D30F2E09F0720F095
:1004100084E080930A0140C089819A818E3F21E067
:10042000920750F48B819C818330E2E09E0720F498
:1004300088E080930A0130C089819A818E3FF1E083
:100440009F0750F48B819C818D3022E0920720F031
:1004500086E080930A0120C089819A818330E2E09E
:100460009E0750F08B819C818330F2E09F0720F43F
:1004700089E080930A0110C089819A81833022E04B
:10048000920750F08B819C818D30E2E09E0720F036
:1004900087E080930A0104C003C010920A010000A3
:1004A00080910A01882F90E0AA2797FDA095BA2F86
:1004B00041E050E028E030E0841B950B2817390715
:1004C00008F47AC08A5B9F4FFC01AFC085E290E0E0
:1004D00021E0FC01208371C085E290E0FC011082E4
:1004E0008BE290E02CE0FC01208388E290E0FC01AC
:1004F000108263C085E290E0FC01108288E290E007
:100500002CE0FC0120838BE290E0FC01108255C0BE
:1005100085E290E0FC01108288E290E020ECFC0192
:1005200020838BE290E0FC01108247C085E290E0DE
:10053000FC0110828BE290E020ECFC01208388E239
:1005400090E0FC01108239C085E290E0FC0110824D
:100550008BE290E023E0FC01208388E290E0FC0144
:1005600010822BC085E290E0FC01108288E290E0CE
:1005700020E3FC0120838BE290E0FC0110821DC08F
:1005800085E290E0FC0110828BE290E020E3FC0128
:10059000208388E290E0FC0110820FC085E290E0A9
:1005A000FC01108288E290E023E0FC0120838BE2D2
:1005B00090E0FC01108201C000000F900F900F909E
:1005C0000F90DF91CF910895CF93DF93CDB7DEB732
:1005D00084E290E02FEFFC01208385E290E0FC01B3
:1005E000108287E290E02FEFFC01208388E290E008
:1005F000FC0110828AE290E02FEFFC0120838BE265
:1006000090E0FC01108210920A0164E670E080E044
:1006100090E063DD8FDD2EDE61DE0000809104015D
:100620008823E1F310920401F7CFEE0FFF1F05902E
:0A063000F491E02D0994F894FFCF37
:04063A0001000000BB
:00000001FF
