:1000000045C0000060C000005EC000005CC0000091
:100010005AC0000058C0000056C0000054C0000084
:1000200052C0000050C000004EC000004CC0000094
:100030004AC000002EC1000046C0000044C00000BD
:1000400042C0000040C000003EC000004BC00000A5
:100050003AC0000038C0000036C0000034C00000C4
:1000600032C0000030C000002EC000002CC00000D4
:100070002AC0000028C0000026C0000024C00000E4
:1000800022C0000020C000001EC0000011241FBEBE
:10009000CFEFD0E4DEBFCDBF11E0A0E0B1E0ECEDEA
:1000A000F4E000E00BBF02C007900D92A631B1074B
:1000B000D9F721E0A6E1B1E001C01D92A132B2075B
:1000C000E1F779D109C29CCF80EB84B980E485B98E
:1000D00081E58CBD08958EBD2C980DB407FEFDCF33
:1000E0002C9A08951F920F920FB60F9211248F939E
:1000F0008EB5809320018F910F900FBE0F901F90AF
:1001000018958FEE8BB90000489B29C0499B29C0E8
:100110004A9B29C04B9B29C08FED8BB90000489B9F
:1001200026C0499B26C04A9B26C04B9B26C08FEB0E
:100130008BB90000489B23C0499B23C04A9B23C026
:100140004B9B23C08FE78BB90000489B20C0499B85
:1001500020C04A9B20C04B9920C084E4089581E3CD
:10016000089584E3089587E308958AE2089582E379
:10017000089585E3089588E3089580E3089583E36F
:10018000089586E3089589E3089583E2089581E45C
:10019000089582E4089583E4089580E00895181690
:1001A00019069CF440E050E077E063E00BC00000EB
:1001B0002150310921153105D1F74F5F5F4F4817A5
:1001C000590719F0272F362FF2CF0895109888B9C4
:1001D000119A0000119882E090E0E1CF089584E642
:1001E00090E0DDDF88E3F2DF86E0F0DF8FE0EEDF36
:1001F00081E0ECDF8AE090E0D2CF0895109A88B9D0
:10020000119A0000119881E090E0C9CF08958131E2
:1002100018F48158DBCF08958155D8CF08951F93E6
:10022000CF93DF93FB019081992359F0EB0111E00B
:10023000180FEDDF8991E2DF8881882311F0812F8B
:10024000F6CFDF91CF911F9108958BE080938100CD
:100250008DE790E0909389008093880082E08093FE
:100260006F0010928500109284008091000190919F
:100270000101A0910201B091030180931A019093B2
:100280001B01A0931C01B0931D018FB780688FBF25
:1002900008951F920F920FB60F9211248F939F9380
:1002A000AF93BF9380911A0190911B01A0911C0103
:1002B000B0911D010197A109B10980931A01909392
:1002C0001B01A0931C01B0931D01892B8A2B8B2B42
:1002D00099F481E080931E018091000190910101C9
:1002E000A0910201B091030180931A0190931B0128
:1002F000A0931C01B0931D01BF91AF919F918F916D
:100300000F900FBE0F901F901895FBDE8093190180
:1003100090911F019230E1F028F4992349F0913037
:1003200059F03EC0943031F1C8F09530A9F138C091
:1003300081E080931F0139C08823B9F182E0809366
:100340001F019091190190549093180182B908955A
:100350001092190183E080931F012AC0882341F184
:1003600084E080931F01909119019053909317019D
:1003700082B908951092190185E080931F01809140
:1003800018018295807F90911701892B8093160127
:10039000A2DE88E082B9089581E080931F0105C044
:1003A00010921F018FEF82B9089581E082B90895FC
:1003B00083E082B90895CF93DF93CDB7DEB7689716
:1003C0000FB6F894DEBF0FBECDBF8FEF87B918B858
:1003D00090EF9AB99FE09BB981B912B882E390E09F
:1003E000A0E0B0E08093000190930101A09302018E
:1003F000B093030180931A0190931B01A0931C01F9
:10040000B0931D0122DF60DEEADE87E0E4E0F1E088
:10041000DE01119601900D928A95E1F786E0EBE0FE
:10042000F1E0DE01189601900D928A95E1F785E0E2
:10043000E1E1F1E0DE011E9601900D928A95E1F76F
:1004400080E290E09C8B8B8B00E20F2EF7E1FF2E79
:10045000F02D80911801805C8F8B088F809117019F
:10046000805D8D8B0E8BBE016F5F7F4F81E0D7DE8D
:10047000BE01695E7F4F87E0D2DEBE01685F7F4FBD
:1004800089E0CDDEBE016B5E7F4F8EE0C8DEBE012F
:10049000625F7F4F81E1C3DEBE016B5E7F4F85E10E
:1004A000BEDEBE016D5E7F4F8FE0B9DEBE016D5EC8
:1004B0007F4F80E1B4DE1F2DBE016D5E7F4F812F27
:1004C000AEDE1F5F1132C1F720DF80911E0188234D
:0C04D000E1F310921E01BDCFF894FFCFA5
:1004DC00010000005074726E3A20005370643A2090
:0604EC000075433A2000F8
:00000001FF
