:1000000045C0000060C000005EC000005CC0000091
:100010005AC0000058C0000056C0000054C0000084
:1000200052C0000050C000004EC000004CC0000094
:100030004AC00000B6C0000046C0000044C0000036
:1000400042C0000040C000003EC000003CC00000B4
:100050003AC0000038C0000036C0000034C00000C4
:1000600032C0000030C000002EC000002CC00000D4
:100070002AC0000028C0000026C0000024C00000E4
:1000800022C0000020C000001EC0000011241FBEBE
:10009000CFEFD0E4DEBFCDBF11E0A0E0B1E0E2EAF7
:1000A000F3E000E00BBF02C007900D92A630B1074D
:1000B000D9F721E0A6E0B1E001C01D92AC30B20753
:1000C000E1F73DD16CC19CCFCF93DF9300D000D03E
:1000D000CDB7DEB769837A838B839C8389819A81CC
:1000E000AB81BC818093000190930101A093020138
:1000F000B09303018091000190910101A091020150
:10010000B09103018093070190930801A093090126
:10011000B0930A010F900F900F900F90DF91CF9145
:100120000895CF93DF93CDB7DEB781E890E02BE061
:10013000FC01208388E890E02DE730E0FC0131836A
:1001400020838FE690E022E0FC01208384E890E0A9
:10015000FC01118210828091000190910101A09117
:100160000201B09103018093070190930801A093CD
:100170000901B0930A018FE590E02FE530E0F90125
:1001800020812068FC012083DF91CF910895CF93D7
:10019000DF93CDB7DEB781E080930601DF91CF9189
:1001A00008951F920F9200905F000F92112400900B
:1001B0005B000F922F933F934F935F936F937F93C7
:1001C0008F939F93AF93BF93EF93FF93CF93DF935F
:1001D000CDB7DEB78091070190910801A091090188
:1001E000B0910A010197A109B10980930701909389
:1001F0000801A0930901B0930A0180910701909131
:100200000801A0910901B0910A010097A105B1056B
:1002100089F4BDDF8091000190910101A09102015C
:10022000B09103018093070190930801A093090105
:10023000B0930A01DF91CF91FF91EF91BF91AF9100
:100240009F918F917F916F915F914F913F912F91EE
:100250000F9000925B000F9000925F000F901F9034
:100260001895CF93DF931F92CDB7DEB780E290E071
:10027000FC01808180958370898380910B01882F98
:1002800090E0009731F09923D4F084309105BCF4CC
:1002900004C081E080930B0115C08981813021F475
:1002A00082E080930B010EC08981823021F483E0CB
:1002B00080930B0107C081E080930B0103C0109273
:1002C0000B01000080910B01882F90E08230910596
:1002D00039F08330910591F081309105D9F019C042
:1002E000809105018F3EC1F080910501882F90E03B
:1002F000880F991F8160809305010EC080910501D0
:100300008E3F61F08091050186958068809305019C
:1003100005C005C0000003C0000001C0000088E265
:1003200090E020910401FC0120838BE290E0209179
:100330000501FC0120830F90DF91CF910895CF93A9
:10034000DF93CDB7DEB787E290E02FEFFC0120838B
:1003500088E290E0FC0110828AE290E02FEFFC013D
:1003600020838BE290E0FC01108281E290E0FC01AE
:10037000108282E290E02FEFFC01208310920B01AB
:100380006CE271E080E090E09FDECBDE6ADF00008F
:10039000809106018823E1F310920601F7CFF894CB
:0203A000FFCF8D
:0603A20001000000FFFE57
:00000001FF
