:100000000C942A000C9447000C9447000C94470071
:100010000C9447000C9447000C9447000C94470044
:100020000C9447000C9447000C9468000C94470013
:100030000C9447000C9447000C9447000C94470024
:100040000C9447000C9447000C9447000C94470014
:100050000C94470011241FBECFE5D8E0DEBFCDBF12
:1000600010E0A0E6B0E0EAE2F2E002C005900D92F6
:10007000A636B107D9F720E0A6E6B0E001C01D9290
:10008000AD36B207E1F70E94F6000C9413010C9410
:1000900000008BE083BF8DE78CBF82E089BF12BE7A
:1000A0008091610090916200A0916300B091640022
:1000B0008093660090936700A0936800B0936900F6
:1000C0008FB780688FBF089581E080936A0008959C
:1000D0001F920F920FB60F9211242F933F934F93BD
:1000E0005F936F937F938F939F93AF93BF93EF93A0
:1000F000FF938091660090916700A0916800B09195
:1001000069000197A109B109809366009093670087
:10011000A0936800B0936900892B8A2B8B2B91F4F4
:100120000E9464008091610090916200A091630040
:10013000B09164008093660090936700A09368007C
:10014000B0936900FF91EF91BF91AF919F918F9113
:100150007F916F915F914F913F912F910F900FBEC3
:100160000F901F90189560936100709362008093C8
:1001700063009093640060936600709367008093BF
:10018000680090936900089580916B00813051F070
:1001900018F0823091F40CC081E08093600080936D
:1001A0006B00089582E08093600080936B00089557
:1001B00084E08093600010926B00089580916C0041
:1001C000882319F0813089F409C08091600088602B
:1001D0008093600081E080936C00089580916000BE
:1001E00087708093600010926C0008958FEF87BB3A
:1001F00018BA68EE73E080E090E00E94B3000E94BD
:10020000490010926B0010926C000E94C4000E9482
:10021000DE008091600088BB80916A008823E1F352
:0A02200010926A00F2CFF894FFCFAD
:06022A00010100000000CC
:00000001FF
